{
  "contractName": "Dex",
  "abi": [
    {
      "anonymous": false,
      "inputs": [
        {
          "indexed": true,
          "internalType": "address",
          "name": "previousOwner",
          "type": "address"
        },
        {
          "indexed": true,
          "internalType": "address",
          "name": "newOwner",
          "type": "address"
        }
      ],
      "name": "OwnershipTransferred",
      "type": "event"
    },
    {
      "inputs": [
        {
          "internalType": "bytes32",
          "name": "ticker",
          "type": "bytes32"
        },
        {
          "internalType": "address",
          "name": "tokenAddress",
          "type": "address"
        }
      ],
      "name": "addTokens",
      "outputs": [],
      "stateMutability": "nonpayable",
      "type": "function"
    },
    {
      "inputs": [
        {
          "internalType": "address",
          "name": "",
          "type": "address"
        },
        {
          "internalType": "bytes32",
          "name": "",
          "type": "bytes32"
        }
      ],
      "name": "balances",
      "outputs": [
        {
          "internalType": "uint256",
          "name": "",
          "type": "uint256"
        }
      ],
      "stateMutability": "view",
      "type": "function",
      "constant": true
    },
    {
      "inputs": [
        {
          "internalType": "uint256",
          "name": "amount",
          "type": "uint256"
        },
        {
          "internalType": "bytes32",
          "name": "ticker",
          "type": "bytes32"
        }
      ],
      "name": "deposit",
      "outputs": [],
      "stateMutability": "nonpayable",
      "type": "function"
    },
    {
      "inputs": [],
      "name": "nextOrderId",
      "outputs": [
        {
          "internalType": "uint256",
          "name": "",
          "type": "uint256"
        }
      ],
      "stateMutability": "view",
      "type": "function",
      "constant": true
    },
    {
      "inputs": [
        {
          "internalType": "bytes32",
          "name": "",
          "type": "bytes32"
        },
        {
          "internalType": "uint256",
          "name": "",
          "type": "uint256"
        },
        {
          "internalType": "uint256",
          "name": "",
          "type": "uint256"
        }
      ],
      "name": "orderBook",
      "outputs": [
        {
          "internalType": "uint256",
          "name": "id",
          "type": "uint256"
        },
        {
          "internalType": "address",
          "name": "trader",
          "type": "address"
        },
        {
          "internalType": "enum Dex.Side",
          "name": "side",
          "type": "uint8"
        },
        {
          "internalType": "bytes32",
          "name": "ticker",
          "type": "bytes32"
        },
        {
          "internalType": "uint256",
          "name": "amount",
          "type": "uint256"
        },
        {
          "internalType": "uint256",
          "name": "price",
          "type": "uint256"
        }
      ],
      "stateMutability": "view",
      "type": "function",
      "constant": true
    },
    {
      "inputs": [],
      "name": "owner",
      "outputs": [
        {
          "internalType": "address",
          "name": "",
          "type": "address"
        }
      ],
      "stateMutability": "view",
      "type": "function",
      "constant": true
    },
    {
      "inputs": [],
      "name": "renounceOwnership",
      "outputs": [],
      "stateMutability": "nonpayable",
      "type": "function"
    },
    {
      "inputs": [
        {
          "internalType": "uint256",
          "name": "",
          "type": "uint256"
        }
      ],
      "name": "tokenList",
      "outputs": [
        {
          "internalType": "bytes32",
          "name": "",
          "type": "bytes32"
        }
      ],
      "stateMutability": "view",
      "type": "function",
      "constant": true
    },
    {
      "inputs": [
        {
          "internalType": "address",
          "name": "newOwner",
          "type": "address"
        }
      ],
      "name": "transferOwnership",
      "outputs": [],
      "stateMutability": "nonpayable",
      "type": "function"
    },
    {
      "inputs": [
        {
          "internalType": "uint256",
          "name": "amount",
          "type": "uint256"
        },
        {
          "internalType": "bytes32",
          "name": "ticker",
          "type": "bytes32"
        }
      ],
      "name": "withdraw",
      "outputs": [],
      "stateMutability": "nonpayable",
      "type": "function"
    },
    {
      "inputs": [
        {
          "internalType": "bytes32",
          "name": "ticker",
          "type": "bytes32"
        },
        {
          "internalType": "enum Dex.Side",
          "name": "side",
          "type": "uint8"
        }
      ],
      "name": "getOrderBook",
      "outputs": [
        {
          "components": [
            {
              "internalType": "uint256",
              "name": "id",
              "type": "uint256"
            },
            {
              "internalType": "address",
              "name": "trader",
              "type": "address"
            },
            {
              "internalType": "enum Dex.Side",
              "name": "side",
              "type": "uint8"
            },
            {
              "internalType": "bytes32",
              "name": "ticker",
              "type": "bytes32"
            },
            {
              "internalType": "uint256",
              "name": "amount",
              "type": "uint256"
            },
            {
              "internalType": "uint256",
              "name": "price",
              "type": "uint256"
            }
          ],
          "internalType": "struct Dex.Order[]",
          "name": "",
          "type": "tuple[]"
        }
      ],
      "stateMutability": "view",
      "type": "function",
      "constant": true
    },
    {
      "inputs": [
        {
          "internalType": "enum Dex.Side",
          "name": "side",
          "type": "uint8"
        },
        {
          "internalType": "bytes32",
          "name": "ticker",
          "type": "bytes32"
        },
        {
          "internalType": "uint256",
          "name": "amount",
          "type": "uint256"
        },
        {
          "internalType": "uint256",
          "name": "price",
          "type": "uint256"
        }
      ],
      "name": "createLimitOrder",
      "outputs": [],
      "stateMutability": "nonpayable",
      "type": "function"
    }
  ],
  "bytecode": "0x6080604052600060045534801561001557600080fd5b5061003261002761003760201b60201c565b61003f60201b60201c565b610103565b600033905090565b60008060009054906101000a900473ffffffffffffffffffffffffffffffffffffffff169050816000806101000a81548173ffffffffffffffffffffffffffffffffffffffff021916908373ffffffffffffffffffffffffffffffffffffffff1602179055508173ffffffffffffffffffffffffffffffffffffffff168173ffffffffffffffffffffffffffffffffffffffff167f8be0079c531659141344cd1fd0a4f28419497f9722a3daafe3b4186f6b6457e060405160405180910390a35050565b6120d780620001136000396000f3fe608060405234801561001057600080fd5b50600436106100b45760003560e01c80638da5cb5b116100715780638da5cb5b1461017e5780639ead72221461019c578063a8d2021a146101cc578063ba58ea68146101e8578063c9630cb014610218578063f2fde38b14610234576100b4565b80630bb431b6146100b95780631f14df69146100ee5780632a58b3301461011e5780634f5338581461013c5780636f3b62f914610158578063715018a614610174575b600080fd5b6100d360048036038101906100ce9190611737565b610250565b6040516100e596959493929190611860565b60405180910390f35b610108600480360381019061010391906118ed565b6102e3565b604051610115919061192d565b60405180910390f35b610126610308565b604051610133919061192d565b60405180910390f35b61015660048036038101906101519190611948565b61030e565b005b610172600480360381019061016d91906119ad565b610449565b005b61017c610e43565b005b610186610ecb565b6040516101939190611a14565b60405180910390f35b6101b660048036038101906101b19190611a2f565b610ef4565b6040516101c39190611a5c565b60405180910390f35b6101e660048036038101906101e19190611a77565b610f18565b005b61020260048036038101906101fd9190611ab7565b61118d565b60405161020f9190611c5d565b60405180910390f35b610232600480360381019061022d9190611a77565b6112dc565b005b61024e60048036038101906102499190611c7f565b6114c0565b005b6005602052826000526040600020602052816000526040600020818154811061027857600080fd5b906000526020600020906005020160009250925050508060000154908060010160009054906101000a900473ffffffffffffffffffffffffffffffffffffffff16908060010160149054906101000a900460ff16908060020154908060030154908060040154905086565b6001602052816000526040600020602052806000526040600020600091509150505481565b60045481565b6103166115b8565b73ffffffffffffffffffffffffffffffffffffffff16610334610ecb565b73ffffffffffffffffffffffffffffffffffffffff161461038a576040517f08c379a000000000000000000000000000000000000000000000000000000000815260040161038190611d09565b60405180910390fd5b60405180604001604052808381526020018273ffffffffffffffffffffffffffffffffffffffff16815250600260008481526020019081526020016000206000820151816000015560208201518160010160006101000a81548173ffffffffffffffffffffffffffffffffffffffff021916908373ffffffffffffffffffffffffffffffffffffffff16021790555090505060038290806001815401808255809150506001900390600052602060002001600090919091909150555050565b6000600181111561045d5761045c6117da565b5b8460018111156104705761046f6117da565b5b141561050a5761048981836115c090919063ffffffff16565b600160003373ffffffffffffffffffffffffffffffffffffffff1673ffffffffffffffffffffffffffffffffffffffff16815260200190815260200160002060007f4554480000000000000000000000000000000000000000000000000000000000815260200190815260200160002054101561050557600080fd5b610595565b60018081111561051d5761051c6117da565b5b8460018111156105305761052f6117da565b5b14156105945781600160003373ffffffffffffffffffffffffffffffffffffffff1673ffffffffffffffffffffffffffffffffffffffff168152602001908152602001600020600085815260200190815260200160002054101561059357600080fd5b5b5b60006005600085815260200190815260200160002060008660018111156105bf576105be6117da565b5b81526020019081526020016000209050806040518060c0016040528060045481526020013373ffffffffffffffffffffffffffffffffffffffff168152602001876001811115610612576106116117da565b5b81526020018681526020018581526020018481525090806001815401808255809150506001900390600052602060002090600502016000909190919091506000820151816000015560208201518160010160006101000a81548173ffffffffffffffffffffffffffffffffffffffff021916908373ffffffffffffffffffffffffffffffffffffffff16021790555060408201518160010160146101000a81548160ff021916908360018111156106cc576106cb6117da565b5b0217905550606082015181600201556080820151816003015560a082015181600401555050600080828054905011610705576000610717565b600182805490506107169190611d58565b5b90506000600181111561072d5761072c6117da565b5b8660018111156107405761073f6117da565b5b1415610aa0575b6000811115610a9b5781818154811061076357610762611d8c565b5b906000526020600020906005020160040154826001836107839190611d58565b8154811061079457610793611d8c565b5b90600052602060002090600502016004015411156107b157610a9b565b6000826001836107c19190611d58565b815481106107d2576107d1611d8c565b5b90600052602060002090600502016040518060c0016040529081600082015481526020016001820160009054906101000a900473ffffffffffffffffffffffffffffffffffffffff1673ffffffffffffffffffffffffffffffffffffffff1673ffffffffffffffffffffffffffffffffffffffff1681526020016001820160149054906101000a900460ff1660018111156108705761086f6117da565b5b6001811115610882576108816117da565b5b8152602001600282015481526020016003820154815260200160048201548152505090508282815481106108b9576108b8611d8c565b5b9060005260206000209060050201836001846108d59190611d58565b815481106108e6576108e5611d8c565b5b9060005260206000209060050201600082015481600001556001820160009054906101000a900473ffffffffffffffffffffffffffffffffffffffff168160010160006101000a81548173ffffffffffffffffffffffffffffffffffffffff021916908373ffffffffffffffffffffffffffffffffffffffff1602179055506001820160149054906101000a900460ff168160010160146101000a81548160ff0219169083600181111561099d5761099c6117da565b5b0217905550600282015481600201556003820154816003015560048201548160040155905050808383815481106109d7576109d6611d8c565b5b90600052602060002090600502016000820151816000015560208201518160010160006101000a81548173ffffffffffffffffffffffffffffffffffffffff021916908373ffffffffffffffffffffffffffffffffffffffff16021790555060408201518160010160146101000a81548160ff02191690836001811115610a6157610a606117da565b5b0217905550606082015181600201556080820151816003015560a082015181600401559050508180610a9290611dbb565b92505050610747565b610e23565b600180811115610ab357610ab26117da565b5b866001811115610ac657610ac56117da565b5b1415610e22575b6000811115610e2157818181548110610ae957610ae8611d8c565b5b90600052602060002090600502016004015482600183610b099190611d58565b81548110610b1a57610b19611d8c565b5b9060005260206000209060050201600401541015610b3757610e21565b600082600183610b479190611d58565b81548110610b5857610b57611d8c565b5b90600052602060002090600502016040518060c0016040529081600082015481526020016001820160009054906101000a900473ffffffffffffffffffffffffffffffffffffffff1673ffffffffffffffffffffffffffffffffffffffff1673ffffffffffffffffffffffffffffffffffffffff1681526020016001820160149054906101000a900460ff166001811115610bf657610bf56117da565b5b6001811115610c0857610c076117da565b5b815260200160028201548152602001600382015481526020016004820154815250509050828281548110610c3f57610c3e611d8c565b5b906000526020600020906005020183600184610c5b9190611d58565b81548110610c6c57610c6b611d8c565b5b9060005260206000209060050201600082015481600001556001820160009054906101000a900473ffffffffffffffffffffffffffffffffffffffff168160010160006101000a81548173ffffffffffffffffffffffffffffffffffffffff021916908373ffffffffffffffffffffffffffffffffffffffff1602179055506001820160149054906101000a900460ff168160010160146101000a81548160ff02191690836001811115610d2357610d226117da565b5b021790555060028201548160020155600382015481600301556004820154816004015590505080838381548110610d5d57610d5c611d8c565b5b90600052602060002090600502016000820151816000015560208201518160010160006101000a81548173ffffffffffffffffffffffffffffffffffffffff021916908373ffffffffffffffffffffffffffffffffffffffff16021790555060408201518160010160146101000a81548160ff02191690836001811115610de757610de66117da565b5b0217905550606082015181600201556080820151816003015560a082015181600401559050508180610e1890611dbb565b92505050610acd565b5b5b60046000815480929190610e3690611de5565b9190505550505050505050565b610e4b6115b8565b73ffffffffffffffffffffffffffffffffffffffff16610e69610ecb565b73ffffffffffffffffffffffffffffffffffffffff1614610ebf576040517f08c379a0000000000000000000000000000000000000000000000000000000008152600401610eb690611d09565b60405180910390fd5b610ec960006115d6565b565b60008060009054906101000a900473ffffffffffffffffffffffffffffffffffffffff16905090565b60038181548110610f0457600080fd5b906000526020600020016000915090505481565b80600073ffffffffffffffffffffffffffffffffffffffff166002600083815260200190815260200160002060010160009054906101000a900473ffffffffffffffffffffffffffffffffffffffff1673ffffffffffffffffffffffffffffffffffffffff161415610f8957600080fd5b82600160003373ffffffffffffffffffffffffffffffffffffffff1673ffffffffffffffffffffffffffffffffffffffff168152602001908152602001600020600084815260200190815260200160002054101561101c576040517f08c379a000000000000000000000000000000000000000000000000000000000815260040161101390611e7a565b60405180910390fd5b61107f83600160003373ffffffffffffffffffffffffffffffffffffffff1673ffffffffffffffffffffffffffffffffffffffff16815260200190815260200160002060008581526020019081526020016000205461169a90919063ffffffff16565b600160003373ffffffffffffffffffffffffffffffffffffffff1673ffffffffffffffffffffffffffffffffffffffff1681526020019081526020016000206000848152602001908152602001600020819055506002600083815260200190815260200160002060010160009054906101000a900473ffffffffffffffffffffffffffffffffffffffff1673ffffffffffffffffffffffffffffffffffffffff1663a9059cbb33856040518363ffffffff1660e01b8152600401611144929190611e9a565b6020604051808303816000875af1158015611163573d6000803e3d6000fd5b505050506040513d601f19601f820116820180604052508101906111879190611efb565b50505050565b60606005600084815260200190815260200160002060008360018111156111b7576111b66117da565b5b8152602001908152602001600020805480602002602001604051908101604052809291908181526020016000905b828210156112d057838290600052602060002090600502016040518060c0016040529081600082015481526020016001820160009054906101000a900473ffffffffffffffffffffffffffffffffffffffff1673ffffffffffffffffffffffffffffffffffffffff1673ffffffffffffffffffffffffffffffffffffffff1681526020016001820160149054906101000a900460ff16600181111561128d5761128c6117da565b5b600181111561129f5761129e6117da565b5b81526020016002820154815260200160038201548152602001600482015481525050815260200190600101906111e5565b50505050905092915050565b80600073ffffffffffffffffffffffffffffffffffffffff166002600083815260200190815260200160002060010160009054906101000a900473ffffffffffffffffffffffffffffffffffffffff1673ffffffffffffffffffffffffffffffffffffffff16141561134d57600080fd5b6002600083815260200190815260200160002060010160009054906101000a900473ffffffffffffffffffffffffffffffffffffffff1673ffffffffffffffffffffffffffffffffffffffff166323b872dd3330866040518463ffffffff1660e01b81526004016113c093929190611f28565b6020604051808303816000875af11580156113df573d6000803e3d6000fd5b505050506040513d601f19601f820116820180604052508101906114039190611efb565b5061146783600160003373ffffffffffffffffffffffffffffffffffffffff1673ffffffffffffffffffffffffffffffffffffffff1681526020019081526020016000206000858152602001908152602001600020546116b090919063ffffffff16565b600160003373ffffffffffffffffffffffffffffffffffffffff1673ffffffffffffffffffffffffffffffffffffffff168152602001908152602001600020600084815260200190815260200160002081905550505050565b6114c86115b8565b73ffffffffffffffffffffffffffffffffffffffff166114e6610ecb565b73ffffffffffffffffffffffffffffffffffffffff161461153c576040517f08c379a000000000000000000000000000000000000000000000000000000000815260040161153390611d09565b60405180910390fd5b600073ffffffffffffffffffffffffffffffffffffffff168173ffffffffffffffffffffffffffffffffffffffff1614156115ac576040517f08c379a00000000000000000000000000000000000000000000000000000000081526004016115a390611fd1565b60405180910390fd5b6115b5816115d6565b50565b600033905090565b600081836115ce9190611ff1565b905092915050565b60008060009054906101000a900473ffffffffffffffffffffffffffffffffffffffff169050816000806101000a81548173ffffffffffffffffffffffffffffffffffffffff021916908373ffffffffffffffffffffffffffffffffffffffff1602179055508173ffffffffffffffffffffffffffffffffffffffff168173ffffffffffffffffffffffffffffffffffffffff167f8be0079c531659141344cd1fd0a4f28419497f9722a3daafe3b4186f6b6457e060405160405180910390a35050565b600081836116a89190611d58565b905092915050565b600081836116be919061204b565b905092915050565b600080fd5b6000819050919050565b6116de816116cb565b81146116e957600080fd5b50565b6000813590506116fb816116d5565b92915050565b6000819050919050565b61171481611701565b811461171f57600080fd5b50565b6000813590506117318161170b565b92915050565b6000806000606084860312156117505761174f6116c6565b5b600061175e868287016116ec565b935050602061176f86828701611722565b925050604061178086828701611722565b9150509250925092565b61179381611701565b82525050565b600073ffffffffffffffffffffffffffffffffffffffff82169050919050565b60006117c482611799565b9050919050565b6117d4816117b9565b82525050565b7f4e487b7100000000000000000000000000000000000000000000000000000000600052602160045260246000fd5b6002811061181a576118196117da565b5b50565b600081905061182b82611809565b919050565b600061183b8261181d565b9050919050565b61184b81611830565b82525050565b61185a816116cb565b82525050565b600060c082019050611875600083018961178a565b61188260208301886117cb565b61188f6040830187611842565b61189c6060830186611851565b6118a9608083018561178a565b6118b660a083018461178a565b979650505050505050565b6118ca816117b9565b81146118d557600080fd5b50565b6000813590506118e7816118c1565b92915050565b60008060408385031215611904576119036116c6565b5b6000611912858286016118d8565b9250506020611923858286016116ec565b9150509250929050565b6000602082019050611942600083018461178a565b92915050565b6000806040838503121561195f5761195e6116c6565b5b600061196d858286016116ec565b925050602061197e858286016118d8565b9150509250929050565b6002811061199557600080fd5b50565b6000813590506119a781611988565b92915050565b600080600080608085870312156119c7576119c66116c6565b5b60006119d587828801611998565b94505060206119e6878288016116ec565b93505060406119f787828801611722565b9250506060611a0887828801611722565b91505092959194509250565b6000602082019050611a2960008301846117cb565b92915050565b600060208284031215611a4557611a446116c6565b5b6000611a5384828501611722565b91505092915050565b6000602082019050611a716000830184611851565b92915050565b60008060408385031215611a8e57611a8d6116c6565b5b6000611a9c85828601611722565b9250506020611aad858286016116ec565b9150509250929050565b60008060408385031215611ace57611acd6116c6565b5b6000611adc858286016116ec565b9250506020611aed85828601611998565b9150509250929050565b600081519050919050565b600082825260208201905092915050565b6000819050602082019050919050565b611b2c81611701565b82525050565b611b3b816117b9565b82525050565b611b4a81611830565b82525050565b611b59816116cb565b82525050565b60c082016000820151611b756000850182611b23565b506020820151611b886020850182611b32565b506040820151611b9b6040850182611b41565b506060820151611bae6060850182611b50565b506080820151611bc16080850182611b23565b5060a0820151611bd460a0850182611b23565b50505050565b6000611be68383611b5f565b60c08301905092915050565b6000602082019050919050565b6000611c0a82611af7565b611c148185611b02565b9350611c1f83611b13565b8060005b83811015611c50578151611c378882611bda565b9750611c4283611bf2565b925050600181019050611c23565b5085935050505092915050565b60006020820190508181036000830152611c778184611bff565b905092915050565b600060208284031215611c9557611c946116c6565b5b6000611ca3848285016118d8565b91505092915050565b600082825260208201905092915050565b7f4f776e61626c653a2063616c6c6572206973206e6f7420746865206f776e6572600082015250565b6000611cf3602083611cac565b9150611cfe82611cbd565b602082019050919050565b60006020820190508181036000830152611d2281611ce6565b9050919050565b7f4e487b7100000000000000000000000000000000000000000000000000000000600052601160045260246000fd5b6000611d6382611701565b9150611d6e83611701565b925082821015611d8157611d80611d29565b5b828203905092915050565b7f4e487b7100000000000000000000000000000000000000000000000000000000600052603260045260246000fd5b6000611dc682611701565b91506000821415611dda57611dd9611d29565b5b600182039050919050565b6000611df082611701565b91507fffffffffffffffffffffffffffffffffffffffffffffffffffffffffffffffff821415611e2357611e22611d29565b5b600182019050919050565b7f62616c616e6365206e6f74207375636366696369656e74000000000000000000600082015250565b6000611e64601783611cac565b9150611e6f82611e2e565b602082019050919050565b60006020820190508181036000830152611e9381611e57565b9050919050565b6000604082019050611eaf60008301856117cb565b611ebc602083018461178a565b9392505050565b60008115159050919050565b611ed881611ec3565b8114611ee357600080fd5b50565b600081519050611ef581611ecf565b92915050565b600060208284031215611f1157611f106116c6565b5b6000611f1f84828501611ee6565b91505092915050565b6000606082019050611f3d60008301866117cb565b611f4a60208301856117cb565b611f57604083018461178a565b949350505050565b7f4f776e61626c653a206e6577206f776e657220697320746865207a65726f206160008201527f6464726573730000000000000000000000000000000000000000000000000000602082015250565b6000611fbb602683611cac565b9150611fc682611f5f565b604082019050919050565b60006020820190508181036000830152611fea81611fae565b9050919050565b6000611ffc82611701565b915061200783611701565b9250817fffffffffffffffffffffffffffffffffffffffffffffffffffffffffffffffff04831182151516156120405761203f611d29565b5b828202905092915050565b600061205682611701565b915061206183611701565b9250827fffffffffffffffffffffffffffffffffffffffffffffffffffffffffffffffff0382111561209657612095611d29565b5b82820190509291505056fea264697066735822122072b60f47f458370672c6fe6078f7c80bf5d3e8c34189eafc253f186f8ec1323764736f6c634300080b0033",
  "immutableReferences": {},
  "source": "// SPDX-License-Identifier: MIT\r\n\r\npragma solidity ^0.8.0;\r\npragma experimental ABIEncoderV2;\r\n\r\nimport \"./wallet.sol\";\r\n\r\ncontract Dex is wallet {\r\n    using SafeMath for uint256;\r\n\r\n    enum Side {\r\n        BUY,\r\n        SELL\r\n    }\r\n\r\n    struct Order {\r\n        uint256 id;\r\n        address trader;\r\n        Side side;\r\n        bytes32 ticker;\r\n        uint256 amount;\r\n        uint256 price;\r\n    }\r\n\r\n    uint256 public nextOrderId = 0;\r\n\r\n    mapping(bytes32 => mapping(uint256 => Order[])) public orderBook;\r\n\r\n    function getOrderBook(bytes32 ticker, Side side)\r\n        public\r\n        view\r\n        returns (Order[] memory)\r\n    {\r\n        return orderBook[ticker][uint256(side)];\r\n    }\r\n\r\n    function createLimitOrder(\r\n        Side side,\r\n        bytes32 ticker,\r\n        uint256 amount,\r\n        uint256 price\r\n    ) public {\r\n        if (side == Side.BUY) {\r\n            require(balances[msg.sender][\"ETH\"] >= amount.mul(price));\r\n        } else if (side == Side.SELL) {\r\n            require(balances[msg.sender][ticker] >= amount);\r\n        }\r\n\r\n        Order[] storage orders = orderBook[ticker][uint256(side)];\r\n        orders.push(\r\n            Order(nextOrderId, msg.sender, side, ticker, amount, price)\r\n        );\r\n        //bubble sort\r\n\r\n        uint256 i = orders.length > 0 ? orders.length - 1 : 0;\r\n\r\n        if (side == Side.BUY) {\r\n            while (i > 0) {\r\n                if (orders[i - 1].price > orders[i].price) {\r\n                    break;\r\n                }\r\n                Order memory orderToMove = orders[i - 1];\r\n                orders[i - 1] = orders[i];\r\n                orders[i] = orderToMove;\r\n                i--;\r\n            }\r\n        } else if (side == Side.SELL) {\r\n            while (i > 0) {\r\n                if (orders[i - 1].price < orders[i].price) {\r\n                    break;\r\n                }\r\n                Order memory orderToMove = orders[i - 1];\r\n                orders[i - 1] = orders[i];\r\n                orders[i] = orderToMove;\r\n                i--;\r\n            }\r\n        }\r\n\r\n        nextOrderId++;\r\n    }\r\n}\r\n",
  "sourcePath": "C:\\Users\\HP\\Desktop\\DEX\\contracts\\dex.sol",
  "compiler": {
    "name": "solc",
    "version": "0.8.11+commit.d7f03943.Emscripten.clang"
  },
  "schemaVersion": "3.4.4",
  "updatedAt": "2022-05-15T22:04:57.660Z",
  "networkType": "ethereum",
  "devdoc": {
    "kind": "dev",
    "methods": {
      "owner()": {
        "details": "Returns the address of the current owner."
      },
      "renounceOwnership()": {
        "details": "Leaves the contract without owner. It will not be possible to call `onlyOwner` functions anymore. Can only be called by the current owner. NOTE: Renouncing ownership will leave the contract without an owner, thereby removing any functionality that is only available to the owner."
      },
      "transferOwnership(address)": {
        "details": "Transfers ownership of the contract to a new account (`newOwner`). Can only be called by the current owner."
      }
    },
    "version": 1
  },
  "userdoc": {
    "kind": "user",
    "methods": {},
    "version": 1
  }
}